{"abi":[{"type":"constructor","inputs":[],"stateMutability":"nonpayable"},{"type":"function","name":"benchmarkAllSizes","inputs":[],"outputs":[{"name":"","type":"tuple[]","internalType":"struct DeployedGasTest.GasResult[]","components":[{"name":"implementation","type":"string","internalType":"string"},{"name":"inputSize","type":"uint256","internalType":"uint256"},{"name":"gasUsed","type":"uint256","internalType":"uint256"},{"name":"result","type":"uint256","internalType":"uint256"}]}],"stateMutability":"nonpayable"},{"type":"function","name":"benchmarkMerkle","inputs":[],"outputs":[{"name":"","type":"tuple[]","internalType":"struct DeployedGasTest.GasResult[]","components":[{"name":"implementation","type":"string","internalType":"string"},{"name":"inputSize","type":"uint256","internalType":"uint256"},{"name":"gasUsed","type":"uint256","internalType":"uint256"},{"name":"result","type":"uint256","internalType":"uint256"}]}],"stateMutability":"nonpayable"},{"type":"function","name":"getAverageGas","inputs":[{"name":"implementation","type":"string","internalType":"string"}],"outputs":[{"name":"","type":"uint256","internalType":"uint256"}],"stateMutability":"view"},{"type":"function","name":"getBestImplementation","inputs":[{"name":"inputSize","type":"uint256","internalType":"uint256"}],"outputs":[{"name":"","type":"string","internalType":"string"},{"name":"","type":"uint256","internalType":"uint256"}],"stateMutability":"view"},{"type":"function","name":"getResults","inputs":[],"outputs":[{"name":"","type":"tuple[]","internalType":"struct DeployedGasTest.GasResult[]","components":[{"name":"implementation","type":"string","internalType":"string"},{"name":"inputSize","type":"uint256","internalType":"uint256"},{"name":"gasUsed","type":"uint256","internalType":"uint256"},{"name":"result","type":"uint256","internalType":"uint256"}]}],"stateMutability":"view"},{"type":"function","name":"results","inputs":[{"name":"","type":"uint256","internalType":"uint256"}],"outputs":[{"name":"implementation","type":"string","internalType":"string"},{"name":"inputSize","type":"uint256","internalType":"uint256"},{"name":"gasUsed","type":"uint256","internalType":"uint256"},{"name":"result","type":"uint256","internalType":"uint256"}],"stateMutability":"view"},{"type":"function","name":"testCardinalGas","inputs":[],"outputs":[{"name":"gasUsed","type":"uint256","internalType":"uint256"},{"name":"result","type":"uint256","internalType":"uint256"}],"stateMutability":"nonpayable"},{"type":"function","name":"testZemseGas","inputs":[],"outputs":[{"name":"gasUsed","type":"uint256","internalType":"uint256"},{"name":"result","type":"uint256","internalType":"uint256"}],"stateMutability":"nonpayable"},{"type":"function","name":"zemseImpl","inputs":[],"outputs":[{"name":"","type":"address","internalType":"contract Poseidon2"}],"stateMutability":"view"},{"type":"error","name":"InvalidFieldElement","inputs":[]},{"type":"error","name":"InvalidInputLength","inputs":[]}],"bytecode":{"object":"0x6080604052348015600e575f5ffd5b506040516019906056565b604051809103905ff0801580156031573d5f5f3e3d5ffd5b50600180546001600160a01b0319166001600160a01b03929092169190911790556063565b61235280611ccd83390190565b611c5d806100705f395ff3fe608060405234801561000f575f5ffd5b5060043610610090575f3560e01c806339931b2f1161006357806339931b2f1461011b5780633e0585b1146101465780634717f97c1461015b5780638b77cb2214610163578063a1cc0d6c1461016b575f5ffd5b8063053273cd1461009457806307c4803d146100b65780631b0c27da146100d7578063351bbf26146100fa575b5f5ffd5b61009c610173565b604080519283526020830191909152015b60405180910390f35b6100c96100c4366004611745565b6102b1565b6040519081526020016100ad565b6100ea6100e53660046117f8565b610366565b6040516100ad9493929190611852565b61010d6101083660046117f8565b610426565b6040516100ad929190611880565b60015461012e906001600160a01b031681565b6040516001600160a01b0390911681526020016100ad565b61014e61057b565b6040516100ad91906118a1565b61014e6106b4565b61014e6107b3565b61009c610b27565b604080516003808252608082019092525f9182918291602082016060803683370190505090506001815f815181106101ad576101ad61192e565b6020026020010181815250506002816001815181106101ce576101ce61192e565b6020026020010181815250506003816002815181106101ef576101ef61192e565b6020026020010181815250505f5a90505f61020983610d9b565b90505a6102169083611956565b6040805160c0810182526008608082019081526718d85c991a5b985b60c21b60a0830152815260036020820152908101829052606081018390525f805460018101825590805281519297509295508592909160049091025f516020611be85f395f51905f520190819061028990826119ec565b5060208201518160010155604082015181600201556060820151816003015550505050509091565b5f8080805b5f548110156103465784805190602001205f82815481106102d9576102d961192e565b905f5260205f2090600402015f016040516102f49190611aa7565b60405180910390200361033e575f81815481106103135761031361192e565b905f5260205f209060040201600201548361032e9190611b18565b92508161033a81611b2b565b9250505b6001016102b6565b505f8111610354575f61035e565b61035e8183611b57565b949350505050565b5f8181548110610374575f80fd5b905f5260205f2090600402015f91509050805f01805461039390611969565b80601f01602080910402602001604051908101604052809291908181526020018280546103bf90611969565b801561040a5780601f106103e15761010080835404028352916020019161040a565b820191905f5260205f20905b8154815290600101906020018083116103ed57829003601f168201915b5050505050908060010154908060020154908060030154905084565b60408051602081019091525f8082526060915f1990825b5f5481101561057157855f82815481106104595761045961192e565b905f5260205f209060040201600101541480156104965750825f82815481106104845761048461192e565b905f5260205f20906004020160020154105b15610569575f81815481106104ad576104ad61192e565b905f5260205f2090600402016002015492505f81815481106104d1576104d161192e565b905f5260205f2090600402015f0180546104ea90611969565b80601f016020809104026020016040519081016040528092919081815260200182805461051690611969565b80156105615780601f1061053857610100808354040283529160200191610561565b820191905f5260205f20905b81548152906001019060200180831161054457829003601f168201915b505050505091505b60010161043d565b5094909350915050565b60606105875f8061167a565b60015b600781116105ad5761059b81610eb7565b806105a581611b2b565b91505061058a565b505f805480602002602001604051908101604052809291908181526020015f905b828210156106ab578382905f5260205f2090600402016040518060800160405290815f820180546105fe90611969565b80601f016020809104026020016040519081016040528092919081815260200182805461062a90611969565b80156106755780601f1061064c57610100808354040283529160200191610675565b820191905f5260205f20905b81548152906001019060200180831161065857829003601f168201915b505050505081526020016001820154815260200160028201548152602001600382015481525050815260200190600101906105ce565b50505050905090565b60605f805480602002602001604051908101604052809291908181526020015f905b828210156106ab578382905f5260205f2090600402016040518060800160405290815f8201805461070690611969565b80601f016020809104026020016040519081016040528092919081815260200182805461073290611969565b801561077d5780601f106107545761010080835404028352916020019161077d565b820191905f5260205f20905b81548152906001019060200180831161076057829003601f168201915b505050505081526020016001820154815260200160028201548152602001600382015481525050815260200190600101906106d6565b60606107bf5f8061167a565b5f5b600a811015610a295760408051631b19599d60e21b602080830191909152602480830185905283518084039091018152604483018452805190820120641c9a59da1d60da1b60648401526069808401869052845180850390910181526089840180865281519190930120600280845260e985018652919490935f93929160a9909101908036833701905050905082815f815181106108615761086161192e565b60200260200101818152505081816001815181106108815761088161192e565b6020908102919091010152604080516002808252606082019092525f918160200160208202803683370190505090506108b98461118c565b815f815181106108cb576108cb61192e565b6020026020010181815250506108e08361118c565b816001815181106108f3576108f361192e565b6020026020010181815250505f5a6001548351604051633326db2d60e11b81529293505f926001600160a01b039092169163664db65a9161093b918791908690600401611b6a565b602060405180830381865afa158015610956573d5f5f3e3d5ffd5b505050506040513d601f19601f8201168201806040525081019061097a9190611bbd565b90505f5a6109889084611956565b6040805160c081018252600660808201908152656d65726b6c6560d01b60a0830152815260026020820152908101829052606081018490525f80546001810182559080528151929350909160049091025f516020611be85f395f51905f52019081906109f490826119ec565b5060208201518160010155604082015181600201556060820151816003015550505050505050505080806001019150506107c1565b505f805480602002602001604051908101604052809291908181526020015f905b828210156106ab578382905f5260205f2090600402016040518060800160405290815f82018054610a7a90611969565b80601f0160208091040260200160405190810160405280929190818152602001828054610aa690611969565b8015610af15780601f10610ac857610100808354040283529160200191610af1565b820191905f5260205f20905b815481529060010190602001808311610ad457829003601f168201915b50505050508152602001600182015481526020016002820154815260200160038201548152505081526020019060010190610a4a565b604080516003808252608082019092525f9182918291602082016060803683370190505090506001815f81518110610b6157610b6161192e565b602002602001018181525050600281600181518110610b8257610b8261192e565b602002602001018181525050600381600281518110610ba357610ba361192e565b6020908102919091010152604080516003808252608082019092525f91816020016020820280368337019050509050610bf4825f81518110610be757610be761192e565b602002602001015161118c565b815f81518110610c0657610c0661192e565b602002602001018181525050610c2882600181518110610be757610be761192e565b81600181518110610c3b57610c3b61192e565b602002602001018181525050610c5d82600281518110610be757610be761192e565b81600281518110610c7057610c7061192e565b6020026020010181815250505f5a6001548351604051633326db2d60e11b81529293505f926001600160a01b039092169163664db65a91610cb8918791908690600401611b6a565b602060405180830381865afa158015610cd3573d5f5f3e3d5ffd5b505050506040513d601f19601f82011682018060405250810190610cf79190611bbd565b90505a610d049083611956565b9550806040805160c081018252600560808201908152647a656d736560d81b60a0830152815260036020820152908101889052606081018290525f80546001810182559080528151929750909160049091025f516020611be85f395f51905f5201908190610d7290826119ec565b506020820151816001015560408201518160020155606082015181600301555050505050509091565b5f81515f1480610dad57506008825110155b15610dcb57604051637db491eb60e01b815260040160405180910390fd5b5f5b8251811015610e24575f516020611c085f395f51905f52838281518110610df657610df661192e565b602002602001015110610e1c57604051633ae4ed6b60e01b815260040160405180910390fd5b600101610dcd565b50610e2d611698565b5f8082525b8351811015610e8057838181518110610e4d57610e4d61192e565b602002602001015182826001610e639190611b18565b60088110610e7357610e7361192e565b6020020152600101610e32565b5060018184516001610e929190611b18565b60088110610ea257610ea261192e565b6020020152610eb08161119b565b5192915050565b5f8167ffffffffffffffff811115610ed157610ed1611731565b604051908082528060200260200182016040528015610efa578160200160208202803683370190505b5090505f5b82811015610f3757610f12816001611b18565b828281518110610f2457610f2461192e565b6020908102919091010152600101610eff565b505f8267ffffffffffffffff811115610f5257610f52611731565b604051908082528060200260200182016040528015610f7b578160200160208202803683370190505b5090505f5b83811015610fc257610f9d838281518110610be757610be761192e565b828281518110610faf57610faf61192e565b6020908102919091010152600101610f80565b505f5a6001548351604051633326db2d60e11b81529293505f926001600160a01b039092169163664db65a91610fff918791908690600401611b6a565b602060405180830381865afa15801561101a573d5f5f3e3d5ffd5b505050506040513d601f19601f8201168201806040525081019061103e9190611bbd565b90505f5a61104c9084611956565b6040805160c081018252600560808201908152647a656d736560d81b60a0830152815260208101899052908101829052606081018490525f80546001810182559080528151929350909160049091025f516020611be85f395f51905f52019081906110b790826119ec565b5060208201518160010155604082015181600201556060820151816003015550505a92505f6110e586610d9b565b90505f5a6110f39086611956565b6040805160c0810182526008608082019081526718d85c991a5b985b60c21b60a08301528152602081018b9052908101829052606081018490525f80546001810182559080528151929350909160049091025f516020611be85f395f51905f520190819061116190826119ec565b5060208201518160010155604082015181600201556060820151816003015550505050505050505050565b806111968161124b565b919050565b6111a4816112ae565b5f5b6111b260026008611b57565b8110156111cb576111c38282611378565b6001016111a6565b505f5b60308110156111fe576111f6826111e760026008611b57565b6111f19084611b18565b6113d5565b6001016111ce565b505f5b61120d60026008611b57565b8110156112475761123f82603061122660026008611b57565b6112309085611b18565b61123a9190611b18565b611378565b600101611201565b5050565b5f516020611c085f395f51905f5281106112ab5760405162461bcd60e51b815260206004820152601960248201527f4669656c643a20696e70757420697320746f6f206c6172676500000000000000604482015260640160405180910390fd5b50565b6112b6611698565b5f5b6008811015611331575f805b600881101561130f575f6112d884836113f4565b90505f516020611c085f395f51905f5280828885600881106112fc576112fc61192e565b60200201510984089250506001016112c4565b50808383600881106113235761132361192e565b6020020152506001016112b8565b505f5b60088110156113735781816008811061134f5761134f61192e565b60200201518382600881106113665761136661192e565b6020020152600101611334565b505050565b6113828282611432565b5f5b60088110156113cb576113ac8382600881106113a2576113a261192e565b6020020151611528565b8382600881106113be576113be61192e565b6020020152600101611384565b50611247826112ae565b6113df8282611432565b6113e9825f6113a2565b82526112478261158d565b5f8183036114045750600261142c565b6008611411836001611b18565b61141b9190611bd4565b83036114295750600161142c565b505f5b92915050565b6040517f43617264696e616c5f506f736569646f6e325f74385f726f756e6400000000006020820152603b81018290525f90605b0160408051601f19818403018152919052805160209091012090505f5b6008811015611522575f5f516020611c085f395f51905f5283836040516020016114b7929190918252602082015260400190565b604051602081830303815290604052805190602001205f1c6114d99190611bd4565b90505f516020611c085f395f51905f52818684600881106114fc576114fc61192e565b6020020151088583600881106115145761151461192e565b602002015250600101611483565b50505050565b5f815f0361153757505f919050565b5f5f516020611c085f395f51905f5283840990505f5f516020611c085f395f51905f5282830990505f5f516020611c085f395f51905f5283830990505f516020611c085f395f51905f5285820995945050505050565b611595611698565b5f5b6008811015611610575f805b60088110156115ee575f6115b78483611652565b90505f516020611c085f395f51905f5280828885600881106115db576115db61192e565b60200201510984089250506001016115a3565b50808383600881106116025761160261192e565b602002015250600101611597565b505f5b60088110156113735781816008811061162e5761162e61192e565b60200201518382600881106116455761164561192e565b6020020152600101611613565b5f82158061165e575081155b1561166b5750600161142c565b8183036114295750600261142c565b5080545f8255600402905f5260205f20908101906112ab91906116b7565b6040518061010001604052806008906020820280368337509192915050565b808211156116e7575f6116ca82826116eb565b505f600182018190556002820181905560038201556004016116b7565b5090565b5080546116f790611969565b5f825580601f10611706575050565b601f0160209004905f5260205f20908101906112ab91905b808211156116e7575f815560010161171e565b634e487b7160e01b5f52604160045260245ffd5b5f60208284031215611755575f5ffd5b813567ffffffffffffffff81111561176b575f5ffd5b8201601f8101841361177b575f5ffd5b803567ffffffffffffffff81111561179557611795611731565b604051601f8201601f19908116603f0116810167ffffffffffffffff811182821017156117c4576117c4611731565b6040528181528282016020018610156117db575f5ffd5b816020840160208301375f91810160200191909152949350505050565b5f60208284031215611808575f5ffd5b5035919050565b5f81518084525f5b8181101561183357602081850181015186830182015201611817565b505f602082860101526020601f19601f83011685010191505092915050565b608081525f611864608083018761180f565b6020830195909552506040810192909252606090910152919050565b604081525f611892604083018561180f565b90508260208301529392505050565b5f602082016020835280845180835260408501915060408160051b8601019250602086015f5b8281101561192257603f1987860301845281518051608087526118ed608088018261180f565b60208381015189820152604080850151908a0152606093840151939098019290925250949384019391909101906001016118c7565b50929695505050505050565b634e487b7160e01b5f52603260045260245ffd5b634e487b7160e01b5f52601160045260245ffd5b8181038181111561142c5761142c611942565b600181811c9082168061197d57607f821691505b60208210810361199b57634e487b7160e01b5f52602260045260245ffd5b50919050565b601f82111561137357805f5260205f20601f840160051c810160208510156119c65750805b601f840160051c820191505b818110156119e5575f81556001016119d2565b5050505050565b815167ffffffffffffffff811115611a0657611a06611731565b611a1a81611a148454611969565b846119a1565b6020601f821160018114611a4c575f8315611a355750848201515b5f19600385901b1c1916600184901b1784556119e5565b5f84815260208120601f198516915b82811015611a7b5787850151825560209485019460019092019101611a5b565b5084821015611a9857868401515f19600387901b60f8161c191681555b50505050600190811b01905550565b5f5f8354611ab481611969565b600182168015611acb5760018114611ae057611b0d565b60ff1983168652811515820286019350611b0d565b865f5260205f205f5b83811015611b0557815488820152600190910190602001611ae9565b505081860193505b509195945050505050565b8082018082111561142c5761142c611942565b5f60018201611b3c57611b3c611942565b5060010190565b634e487b7160e01b5f52601260045260245ffd5b5f82611b6557611b65611b43565b500490565b606080825284519082018190525f9060208601906080840190835b81811015611ba3578351835260209384019390920191600101611b85565b505060208401959095525050901515604090910152919050565b5f60208284031215611bcd575f5ffd5b5051919050565b5f82611be257611be2611b43565b50069056fe290decd9548b62a8d60345a988386fc84ba6bc95484008f6362f93160ef3e56330644e72e131a029b85045b68181585d2833e84879b9709143e1f593f0000001a26469706673582212203eabf8f30bc9bf1a3b8eb8fd5494deed5c7a0326253cc1fbfbe5c97361ec71f964736f6c634300081e00336080604052348015600e575f5ffd5b506123368061001c5f395ff3fe608060405234801561000f575f5ffd5b5060043610610055575f3560e01c8063055d8d541461005957806340ec6e491461007e578063664db65a146100915780636bdcae5c146100a4578063e16f6200146100b7575b5f5ffd5b61006c6100673660046120f6565b6100ca565b60405190815260200160405180910390f35b61006c61008c3660046121c6565b6100de565b61006c61009f3660046121f8565b6100eb565b61006c6100b2366004612253565b6100ff565b61006c6100c536600461226a565b610109565b5f6100d58383610115565b90505b92915050565b5f6100d88283515f61018c565b5f6100f784848461018c565b949350505050565b5f6100d8826101a0565b5f6100f78484846101fe565b6040805160028082526060820183525f928392919060208301908036833701905050905083815f8151811061014c5761014c612293565b602002602001018181525050828160018151811061016c5761016c612293565b6020026020010181815250506100f761018361029f565b8260025f6117e7565b5f6100f761019861029f565b8585856117e7565b6040805160018082528183019092525f918291906020808301908036833701905050905082815f815181106101d7576101d7612293565b6020026020010181815250506101f76101ee61029f565b8260015f6117e7565b9392505050565b604080516003808252608082019092525f918291906020820160608036833701905050905084815f8151811061023657610236612293565b602002602001018181525050838160018151811061025657610256612293565b602002602001018181525050828160028151811061027657610276612293565b60200260200101818152505061029661028d61029f565b8260035f6117e7565b95945050505050565b6102a7612027565b604051806040016040528060405180608001604052807f10dc6e9c006ea38b04b1e03b4bd9490c0d03f98929ca1d7fb56821fd19d3b6e781526020017f0c28145b6a44df3e0149b3d0a30b3bb599df9756d4dd9b84a86b38cfb45a740b81526020017e544b8338791518b2c7645a50392798b21f75bb60e3596170067d00141cac1581526020017f222c01175718386f2e2e82eb122789e352e105a3b8fa852613bc534433ee428b815250815260200160405180610800016040528060405180608001604052807f19b849f69450b06848da1d39bd5e4a4302bb86744edc26238b0878e269ed23e581526020017f265ddfe127dd51bd7239347b758f0a1320eb2cc7450acc1dad47f80c8dcf34d681526020017f199750ec472f1809e0f66a545e1e51624108ac845015c2aa3dfc36bab497d8aa81526020017f157ff3fe65ac7208110f06a5f74302b14d743ea25067f0ffd032f787c7f1cdf8815250815260200160405180608001604052807f2e49c43c4569dd9c5fd35ac45fca33f10b15c590692f8beefe18f4896ac9490281526020017f0e35fb89981890520d4aef2b6d6506c3cb2f0b6973c24fa82731345ffa2d1f1e81526020017f251ad47cb15c4f1105f109ae5e944f1ba9d9e7806d667ffec6fe723002e0b99681526020017f13da07dc64d428369873e97160234641f8beb56fdd05e5f3563fa39d9c22df4e815250815260200160405180608001604052807f0c009b84e650e6d23dc00c7dccef7483a553939689d350cd46e7b89055fd473881526020017f011f16b1c63a854f01992e3956f42d8b04eb650c6d535eb0203dec74befdca0681526020017f0ed69e5e383a688f209d9a561daa79612f3f78d0467ad45485df07093f36754981526020017f04dba94a7b0ce9e221acad41472b6bbe3aec507f5eb3d33f463672264c9f789b815250815260200160405180608001604052807f0a3f2637d840f3a16eb094271c9d237b6036757d4bb50bf7ce732ff1d4fa28e881526020017f259a666f129eea198f8a1c502fdb38fa39b1f075569564b6e54a485d1182323f81526020017f28bf7459c9b2f4c6d8e7d06a4ee3a47f7745d4271038e5157a32fdf7ede0d6a181526020017f0a1ca941f057037526ea200f489be8d4c37c85bbcce6a2aeec91bd6941432447815250815260200160405180608001604052807f0c6f8f958be0e93053d7fd4fc54512855535ed1539f051dcb43a26fd926361cf81526020015f81526020015f81526020015f815250815260200160405180608001604052807f123106a93cd17578d426e8128ac9d90aa9e8a00708e296e084dd57e69caaf81181526020015f81526020015f81526020015f815250815260200160405180608001604052807f26e1ba52ad9285d97dd3ab52f8e840085e8fa83ff1e8f1877b074867cd2dee7581526020015f81526020015f81526020015f815250815260200160405180608001604052807f1cb55cad7bd133de18a64c5c47b9c97cbe4d8b7bf9e095864471537e6a4ae2c581526020015f81526020015f81526020015f815250815260200160405180608001604052807f1dcd73e46acd8f8e0e2c7ce04bde7f6d2a53043d5060a41c7143f08e6e9055d081526020015f81526020015f81526020015f815250815260200160405180608001604052807f011003e32f6d9c66f5852f05474a4def0cda294a0eb4e9b9b12b9bb4512e557481526020015f81526020015f81526020015f815250815260200160405180608001604052807f2b1e809ac1d10ab29ad5f20d03a57dfebadfe5903f58bafed7c508dd2287ae8c81526020015f81526020015f81526020015f815250815260200160405180608001604052807f2539de1785b735999fb4dac35ee17ed0ef995d05ab2fc5faeaa69ae87bcec0a581526020015f81526020015f81526020015f815250815260200160405180608001604052807f0c246c5a2ef8ee0126497f222b3e0a0ef4e1c3d41c86d46e43982cb11d77951d81526020015f81526020015f81526020015f815250815260200160405180608001604052807f192089c4974f68e95408148f7c0632edbb09e6a6ad1a1c2f3f0305f5d03b527b81526020015f81526020015f81526020015f815250815260200160405180608001604052807f1eae0ad8ab68b2f06a0ee36eeb0d0c058529097d91096b756d8fdc2fb5a60d8581526020015f81526020015f81526020015f815250815260200160405180608001604052807f179190e5d0e22179e46f8282872abc88db6e2fdc0dee99e69768bd98c5d06bfb81526020015f81526020015f81526020015f815250815260200160405180608001604052807f29bb9e2c9076732576e9a81c7ac4b83214528f7db00f31bf6cafe794a9b3cd1c81526020015f81526020015f81526020015f815250815260200160405180608001604052807f225d394e42207599403efd0c2464a90d52652645882aac35b10e590e6e691e0881526020015f81526020015f81526020015f815250815260200160405180608001604052807f064760623c25c8cf753d238055b444532be13557451c087de09efd454b23fd5981526020015f81526020015f81526020015f815250815260200160405180608001604052807f10ba3a0e01df92e87f301c4b716d8a394d67f4bf42a75c10922910a78f6b5b8781526020015f81526020015f81526020015f815250815260200160405180608001604052807f0e070bf53f8451b24f9c6e96b0c2a801cb511bc0c242eb9d361b77693f21471c81526020015f81526020015f81526020015f815250815260200160405180608001604052807f1b94cd61b051b04dd39755ff93821a73ccd6cb11d2491d8aa7f921014de252fb81526020015f81526020015f81526020015f815250815260200160405180608001604052807f1d7cb39bafb8c744e148787a2e70230f9d4e917d5713bb050487b5aa7d74070b81526020015f81526020015f81526020015f815250815260200160405180608001604052807f2ec93189bd1ab4f69117d0fe980c80ff8785c2961829f701bb74ac1f303b17db81526020015f81526020015f81526020015f815250815260200160405180608001604052807f2db366bfdd36d277a692bb825b86275beac404a19ae07a9082ea46bd8351792681526020015f81526020015f81526020015f815250815260200160405180608001604052807f062100eb485db06269655cf186a68532985275428450359adc99cec6960711b881526020015f81526020015f81526020015f815250815260200160405180608001604052807f0761d33c66614aaa570e7f1e8244ca1120243f92fa59e4f900c567bf41f5a59b81526020015f81526020015f81526020015f815250815260200160405180608001604052807f20fc411a114d13992c2705aa034e3f315d78608a0f7de4ccf7a72e494855ad0d81526020015f81526020015f81526020015f815250815260200160405180608001604052807f25b5c004a4bdfcb5add9ec4e9ab219ba102c67e8b3effb5fc3a30f317250bc5a81526020015f81526020015f81526020015f815250815260200160405180608001604052807f23b1822d278ed632a494e58f6df6f5ed038b186d8474155ad87e7dff62b37f4b81526020015f81526020015f81526020015f815250815260200160405180608001604052807f22734b4c5c3f9493606c4ba9012499bf0f14d13bfcfcccaa16102a29cc2f69e081526020015f81526020015f81526020015f815250815260200160405180608001604052807f26c0c8fe09eb30b7e27a74dc33492347e5bdff409aa3610254413d3fad795ce581526020015f81526020015f81526020015f815250815260200160405180608001604052807f070dd0ccb6bd7bbae88eac03fa1fbb26196be3083a809829bbd626df348ccad981526020015f81526020015f81526020015f815250815260200160405180608001604052807f12b6595bdb329b6fb043ba78bb28c3bec2c0a6de46d8c5ad6067c4ebfd4250da81526020015f81526020015f81526020015f815250815260200160405180608001604052807f248d97d7f76283d63bec30e7a5876c11c06fca9b275c671c5e33d95bb7e8d72981526020015f81526020015f81526020015f815250815260200160405180608001604052807f1a306d439d463b0816fc6fd64cc939318b45eb759ddde4aa106d15d9bd9baaaa81526020015f81526020015f81526020015f815250815260200160405180608001604052807f28a8f8372e3c38daced7c00421cb4621f4f1b54ddc27821b0d62d3d6ec7c56cf81526020015f81526020015f81526020015f815250815260200160405180608001604052807e94975717f9a8a8bb35152f24d43294071ce320c829f388bc852183e1e2ce7e81526020015f81526020015f81526020015f815250815260200160405180608001604052807f04d5ee4c3aa78f7d80fde60d716480d3593f74d4f653ae83f4103246db2e8d6581526020015f81526020015f81526020015f815250815260200160405180608001604052807f2a6cf5e9aa03d4336349ad6fb8ed2269c7bef54b8822cc76d08495c12efde18781526020015f81526020015f81526020015f815250815260200160405180608001604052807f2304d31eaab960ba9274da43e19ddeb7f792180808fd6e43baae48d7efcba3f381526020015f81526020015f81526020015f815250815260200160405180608001604052807f03fd9ac865a4b2a6d5e7009785817249bff08a7e0726fcb4e1c11d39d199f0b081526020015f81526020015f81526020015f815250815260200160405180608001604052807eb7258ded52bbda2248404d55ee5044798afc3a209193073f7954d4d63b0b6481526020015f81526020015f81526020015f815250815260200160405180608001604052807f159f81ada0771799ec38fca2d4bf65ebb13d3a74f3298db36272c5ca65e92d9a81526020015f81526020015f81526020015f815250815260200160405180608001604052807f1ef90e67437fbc8550237a75bc28e3bb9000130ea25f0c5471e144cf4264431f81526020015f81526020015f81526020015f815250815260200160405180608001604052807f1e65f838515e5ff0196b49aa41a2d2568df739bc176b08ec95a79ed82932e30d81526020015f81526020015f81526020015f815250815260200160405180608001604052807f2b1b045def3a166cec6ce768d079ba74b18c844e570e1f826575c1068c94c33f81526020015f81526020015f81526020015f815250815260200160405180608001604052807f0832e5753ceb0ff6402543b1109229c165dc2d73bef715e3f1c6e07c168bb17381526020015f81526020015f81526020015f815250815260200160405180608001604052807f02f614e9cedfb3dc6b762ae0a37d41bab1b841c2e8b6451bc5a8e3c390b6ad1681526020015f81526020015f81526020015f815250815260200160405180608001604052807f0e2427d38bd46a60dd640b8e362cad967370ebb777bedff40f6a0be27e7ed70581526020015f81526020015f81526020015f815250815260200160405180608001604052807f0493630b7c670b6deb7c84d414e7ce79049f0ec098c3c7c50768bbe29214a53a81526020015f81526020015f81526020015f815250815260200160405180608001604052807f22ead100e8e482674decdab17066c5a26bb1515355d5461a3dc06cc85327cea981526020015f81526020015f81526020015f815250815260200160405180608001604052807f25b3e56e655b42cdaae2626ed2554d48583f1ae35626d04de5084e0b6d2a6f1681526020015f81526020015f81526020015f815250815260200160405180608001604052807f1e32752ada8836ef5837a6cde8ff13dbb599c336349e4c584b4fdc0a0cf6f9d081526020015f81526020015f81526020015f815250815260200160405180608001604052807f2fa2a871c15a387cc50f68f6f3c3455b23c00995f05078f672a9864074d412e581526020015f81526020015f81526020015f815250815260200160405180608001604052807f2f569b8a9a4424c9278e1db7311e889f54ccbf10661bab7fcd18e7c7a7d8350581526020015f81526020015f81526020015f815250815260200160405180608001604052807f044cb455110a8fdd531ade530234c518a7df93f7332ffd2144165374b246b43d81526020015f81526020015f81526020015f815250815260200160405180608001604052807f227808de93906d5d420246157f2e42b191fe8c90adfe118178ddc723a531902581526020015f81526020015f81526020015f815250815260200160405180608001604052807f02fcca2934e046bc623adead873579865d03781ae090ad4a8579d2e7a680035581526020015f81526020015f81526020015f815250815260200160405180608001604052807f0ef915f0ac120b876abccceb344a1d36bad3f3c5ab91a8ddcbec2e060d8befac81526020015f81526020015f81526020015f815250815260200160405180608001604052807f1797130f4b7a3e1777eb757bc6f287f6ab0fb85f6be63b09f3b16ef2b1405d3881526020017f0a76225dc04170ae3306c85abab59e608c7f497c20156d4d36c668555decc6e581526020017f1fffb9ec1992d66ba1e77a7b93209af6f8fa76d48acb664796174b5326a31a5c81526020017f25721c4fc15a3f2853b57c338fa538d85f8fbba6c6b9c6090611889b797b9c5f815250815260200160405180608001604052807f0c817fd42d5f7a41215e3d07ba197216adb4c3790705da95eb63b982bfcaf75a81526020017f13abe3f5239915d39f7e13c2c24970b6df8cf86ce00a22002bc15866e52b5a9681526020017f2106feea546224ea12ef7f39987a46c85c1bc3dc29bdbd7a92cd60acb4d391ce81526020017f21ca859468a746b6aaa79474a37dab49f1ca5a28c748bc7157e1b3345bb0f959815250815260200160405180608001604052807f05ccd6255c1e6f0c5cf1f0df934194c62911d14d0321662a8f1a48999e34185b81526020017f0f0e34a64b70a626e464d846674c4c8816c4fb267fe44fe6ea28678cb09490a481526020017f0558531a4e25470c6157794ca36d0e9647dbfcfe350d64838f5b1a8a2de0d4bf81526020017f09d3dca9173ed2faceea125157683d18924cadad3f655a60b72f5864961f1455815250815260200160405180608001604052807f0328cbd54e8c0913493f866ed03d218bf23f92d68aaec48617d4c722e5bd433581526020017f2bf07216e2aff0a223a487b1a7094e07e79e7bcc9798c648ee3347dd5329d34b81526020017f1daf345a58006b736499c583cb76c316d6f78ed6a6dffc82111e11a63fe412df81526020017f176563472456aaa746b694c60e1823611ef39039b2edc7ff391e6f2293d2c404815250815250815250905090565b5f5f6117fd6117f7865160401b90565b8761186b565b90505f5b8551811015611846578481101561183e5761183e86828151811061182757611827612293565b60200260200101518361190390919063ffffffff16565b600101611801565b50821561185857611858816001611903565b61186181611991565b9695505050505050565b61187361204c565b5f6040518060c0016040528085815260200160405180606001604052805f81526020015f81526020015f815250815260200160405180608001604052805f81526020015f81526020015f81526020015f81525081526020015f81526020015f151581526020018481525090508381604001516003600481106118f7576118f7612293565b60200201529392505050565b8160800151158015611919575060038260600151145b156119385761192782611aa5565b506020820151526001606090910152565b816080015115801561194f57506003826060015114155b1561198d5780826020015183606001516003811061196f5761196f612293565b6020020152606082018051600191906119899083906122bb565b9052505b5050565b5f81608001516119fd575f6119a583611aa5565b6001608085015290505f5b60038110156119f3578181600381106119cb576119cb612293565b6020020151846020015182600381106119e6576119e6612293565b60200201526001016119b0565b5050600360608301525b60208201515160015b6003811015611a66578360600151811015611a5e5783602001518160038110611a3157611a31612293565b60200201518460200151600183611a4891906122ce565b60038110611a5857611a58612293565b60200201525b600101611a06565b50600183606001818151611a7a91906122ce565b905250602083015160608401515f919060038110611a9a57611a9a612293565b602002015292915050565b611aad61208c565b5f5b6003811015611ae85782606001518110611ae0575f83602001518260038110611ada57611ada612293565b60200201525b600101611aaf565b505f5b6003811015611b5657611b3383602001518260038110611b0d57611b0d612293565b602002015184604001518360048110611b2857611b28612293565b602002015190611be3565b83604001518260048110611b4957611b49612293565b6020020152600101611aeb565b50611b7582604001518360a001515f01518460a0015160200151611c0f565b60408084019190915280516060810182525f80825260208201819052918101829052905b6003811015611bdc5783604001518160048110611bb857611bb8612293565b6020020151828260038110611bcf57611bcf612293565b6020020152600101611b99565b5092915050565b5f7f30644e72e131a029b85045b68181585d2833e84879b9709143e1f593f00000018284089392505050565b611c176120aa565b5f60405180608001604052805f81526020015f81526020015f81526020015f81525090505f5b6004811015611c7c57858160048110611c5857611c58612293565b6020020151828260048110611c6f57611c6f612293565b6020020152600101611c3d565b50611c8681611d71565b5f611c93600260086122e1565b90505f5b81811015611cc457611caa838683611e62565b611cb383611ed4565b611cbc83611d71565b600101611c97565b505f611cd16038836122bb565b9050815b81811015611d2557611cff868260408110611cf257611cf2612293565b602002015151855f611b28565b8452611d11845f5b6020020151611f13565b8452611d1d8488611f35565b600101611cd5565b505f611d33603860086122bb565b9050815b81811015611d6457611d4a858883611e62565b611d5385611ed4565b611d5c85611d71565b600101611d37565b5092979650505050505050565b5f611d848260016020020151835f611b28565b90505f611d9a8360036020020151846002611b28565b90505f611db08460016020020151856001611b28565b9050611dbc8183611be3565b90505f611dd28560036020020151866003611b28565b9050611dde8185611be3565b90505f611deb8480611be3565b9050611df78180611be3565b9050611e038183611be3565b90505f611e108680611be3565b9050611e1c8180611be3565b9050611e288185611be3565b90505f611e358483611be3565b90505f611e428685611be3565b918952506020880191909152604087015260609095019490945250505050565b5f5b6004811015611ece57611eaf838360408110611e8257611e82612293565b60200201518260048110611e9857611e98612293565b6020020151858360048110611b2857611b28612293565b848260048110611ec157611ec1612293565b6020020152600101611e64565b50505050565b5f5b600481101561198d57611ef4828260048110611d0757611d07612293565b828260048110611f0657611f06612293565b6020020152600101611ed6565b5f80611f1f8380611ffb565b90506101f783611f2f8380611ffb565b90611ffb565b5f805b6004811015611f6c57611f62848260048110611f5657611f56612293565b60200201518390611be3565b9150600101611f38565b505f5b6004811015611ece57611faf838260048110611f8d57611f8d612293565b6020020151858360048110611fa457611fa4612293565b602002015190611ffb565b848260048110611fc157611fc1612293565b6020020152611fdc82858360048110611b2857611b28612293565b848260048110611fee57611fee612293565b6020020152600101611f6f565b5f7f30644e72e131a029b85045b68181585d2833e84879b9709143e1f593f00000018284099392505050565b604051806040016040528061203a6120aa565b81526020016120476120c8565b905290565b6040518060c001604052805f815260200161206561208c565b81526020016120726120aa565b81525f602082018190526040820152606001612047612027565b60405180606001604052806003906020820280368337509192915050565b60405180608001604052806004906020820280368337509192915050565b6040518061080001604052806040905b6120e06120aa565b8152602001906001900390816120d85790505090565b5f5f60408385031215612107575f5ffd5b50508035926020909101359150565b634e487b7160e01b5f52604160045260245ffd5b5f82601f830112612139575f5ffd5b813567ffffffffffffffff81111561215357612153612116565b8060051b604051601f19603f830116810181811067ffffffffffffffff8211171561218057612180612116565b60405291825260208185018101929081018684111561219d575f5ffd5b6020860192505b838310156121bc5782358152602092830192016121a4565b5095945050505050565b5f602082840312156121d6575f5ffd5b813567ffffffffffffffff8111156121ec575f5ffd5b6100f78482850161212a565b5f5f5f6060848603121561220a575f5ffd5b833567ffffffffffffffff811115612220575f5ffd5b61222c8682870161212a565b9350506020840135915060408401358015158114612248575f5ffd5b809150509250925092565b5f60208284031215612263575f5ffd5b5035919050565b5f5f5f6060848603121561227c575f5ffd5b505081359360208301359350604090920135919050565b634e487b7160e01b5f52603260045260245ffd5b634e487b7160e01b5f52601160045260245ffd5b808201808211156100d8576100d86122a7565b818103818111156100d8576100d86122a7565b5f826122fb57634e487b7160e01b5f52601260045260245ffd5b50049056fea26469706673582212209c90ad441dfc337cc7eddc2691a6dc13543c28624cb267e13184798d61736fa664736f6c634300081e0033","linkReferences":{}},"methodIdentifiers":{"benchmarkAllSizes()":"3e0585b1","benchmarkMerkle()":"8b77cb22","getAverageGas(string)":"07c4803d","getBestImplementation(uint256)":"351bbf26","getResults()":"4717f97c","results(uint256)":"1b0c27da","testCardinalGas()":"053273cd","testZemseGas()":"a1cc0d6c","zemseImpl()":"39931b2f"},"id":1}