{"Poseidon2Main.sol":{"Poseidon2Main":{"abi":[{"type":"constructor","inputs":[],"stateMutability":"nonpayable"},{"type":"function","name":"batchHash","inputs":[{"name":"inputs","type":"uint256[][]","internalType":"uint256[][]"}],"outputs":[{"name":"outputs","type":"uint256[]","internalType":"uint256[]"}],"stateMutability":"nonpayable"},{"type":"function","name":"externalMatrix","inputs":[{"name":"","type":"uint256","internalType":"uint256"},{"name":"","type":"uint256","internalType":"uint256"}],"outputs":[{"name":"","type":"uint256","internalType":"uint256"}],"stateMutability":"view"},{"type":"function","name":"getMatrixElement","inputs":[{"name":"isExternal","type":"bool","internalType":"bool"},{"name":"i","type":"uint256","internalType":"uint256"},{"name":"j","type":"uint256","internalType":"uint256"}],"outputs":[{"name":"","type":"uint256","internalType":"uint256"}],"stateMutability":"view"},{"type":"function","name":"getRoundConstant","inputs":[{"name":"round","type":"uint256","internalType":"uint256"},{"name":"index","type":"uint256","internalType":"uint256"}],"outputs":[{"name":"","type":"uint256","internalType":"uint256"}],"stateMutability":"view"},{"type":"function","name":"hash","inputs":[{"name":"input","type":"uint256[]","internalType":"uint256[]"}],"outputs":[{"name":"","type":"uint256","internalType":"uint256"}],"stateMutability":"nonpayable"},{"type":"function","name":"hashWithDomain","inputs":[{"name":"input","type":"uint256[]","internalType":"uint256[]"},{"name":"domainSeparator","type":"uint256","internalType":"uint256"}],"outputs":[{"name":"","type":"uint256","internalType":"uint256"}],"stateMutability":"nonpayable"},{"type":"function","name":"internalMatrix","inputs":[{"name":"","type":"uint256","internalType":"uint256"},{"name":"","type":"uint256","internalType":"uint256"}],"outputs":[{"name":"","type":"uint256","internalType":"uint256"}],"stateMutability":"view"},{"type":"function","name":"merkleHash","inputs":[{"name":"left","type":"uint256","internalType":"uint256"},{"name":"right","type":"uint256","internalType":"uint256"}],"outputs":[{"name":"","type":"uint256","internalType":"uint256"}],"stateMutability":"nonpayable"},{"type":"function","name":"permute","inputs":[{"name":"state","type":"uint256[12]","internalType":"uint256[12]"}],"outputs":[{"name":"","type":"uint256[12]","internalType":"uint256[12]"}],"stateMutability":"view"},{"type":"function","name":"roundConstants","inputs":[{"name":"","type":"uint256","internalType":"uint256"},{"name":"","type":"uint256","internalType":"uint256"}],"outputs":[{"name":"","type":"uint256","internalType":"uint256"}],"stateMutability":"view"},{"type":"event","name":"HashComputed","inputs":[{"name":"inputHash","type":"bytes32","indexed":true,"internalType":"bytes32"},{"name":"output","type":"uint256","indexed":false,"internalType":"uint256"}],"anonymous":false},{"type":"event","name":"PermutationApplied","inputs":[{"name":"state","type":"uint256[12]","indexed":false,"internalType":"uint256[12]"}],"anonymous":false},{"type":"error","name":"InvalidFieldElement","inputs":[]},{"type":"error","name":"InvalidInputLength","inputs":[]},{"type":"error","name":"InvalidWidth","inputs":[]}],"userdoc":{},"devdoc":{},"evm":{"bytecode":{"object":"608060405234801561000f575f5ffd5b50610018610025565b61002061013c565b610565565b5f61002e6101d4565b90505f5b600c8110156100ad575f5b600c8110156100a4578282600c81106100585761005861050d565b602002015181600c811061006e5761006e61050d565b60200201515f83600c81106100855761008561050d565b600c020182600c811061009a5761009a61050d565b015560010161003d565b50600101610032565b505f6100b76102ac565b90505f5b600c811015610137575f5b600c81101561012e578282600c81106100e1576100e161050d565b602002015181600c81106100f7576100f761050d565b6020020151609083600c811061010f5761010f61050d565b600c020182600c81106101245761012461050d565b01556001016100c6565b506001016100bb565b505050565b5f610145610371565b90505f5b610155601a6008610521565b8110156101d0575f5b600c8110156101c7578282600c81106101795761017961050d565b6020020151816022811061018f5761018f61050d565b602002015161012083600c81106101a8576101a861050d565b6022020182602281106101bd576101bd61050d565b015560010161015e565b50600101610149565b5050565b6101dc610473565b6101e4610473565b5f5b600c8110156102a6575f5b600c81101561029d578082036102355760028383600c81106102155761021561050d565b602002015182600c811061022b5761022b61050d565b6020020152610295565b600c610242826001610521565b61024c9190610546565b82036102665760018383600c81106102155761021561050d565b5f8383600c81106102795761027961050d565b602002015182600c811061028f5761028f61050d565b60200201525b6001016101f1565b506001016101e6565b50919050565b6102b4610473565b6102bc610473565b5f5b600c8110156102a6575f5b600c811015610368578115806102dd575080155b156103165760018383600c81106102f6576102f661050d565b602002015182600c811061030c5761030c61050d565b6020020152610360565b8082036103315760028383600c81106102f6576102f661050d565b5f8383600c81106103445761034461050d565b602002015182600c811061035a5761035a61050d565b60200201525b6001016102c9565b506001016102be565b6103796104a1565b6103816104a1565b6040517f506f736569646f6e325f476f6c64696c6f636b735f743132000000000000000060208201525f9060380160408051601f19818403018152919052805160209091012090505f5b6103d7601a6008610521565b81101561046b575f5b600c811015610462576040805160208082018690528183018590526060808301859052835180840390910181526080909201909252805191012061042c67ffffffff0000000182610546565b8584600c811061043e5761043e61050d565b602002015183602281106104545761045461050d565b6020020152506001016103e0565b506001016103cb565b509092915050565b604051806101800160405280600c905b61048b6104cf565b8152602001906001900390816104835790505090565b604051806101800160405280600c905b6104b96104ee565b8152602001906001900390816104b15790505090565b604051806101800160405280600c906020820280368337509192915050565b6040518061044001604052806022906020820280368337509192915050565b634e487b7160e01b5f52603260045260245ffd5b8082018082111561054057634e487b7160e01b5f52601160045260245ffd5b92915050565b5f8261056057634e487b7160e01b5f52601260045260245ffd5b500690565b610e57806105725f395ff3fe608060405234801561000f575f5ffd5b506004361061009a575f3560e01c80635f7482a8116100635780635f7482a81461011d5780636c187eef14610130578063848b680c14610150578063e10a53dc14610163578063f11b740d14610176575f5ffd5b80622f7bc11461009e5780633b0023c7146100c457806340ec6e49146100d7578063496f3b22146100ea57806356dca7921461010a575b5f5ffd5b6100b16100ac366004610a3e565b610189565b6040519081526020015b60405180910390f35b6100b16100d2366004610a3e565b6101b2565b6100b16100e5366004610b30565b6101d3565b6100fd6100f8366004610b62565b61034a565b6040516100bb9190610bdf565b6100b1610118366004610a3e565b61040d565b6100b161012b366004610c10565b61041b565b61014361013e366004610c46565b610482565b6040516100bb9190610cf7565b6100b161015e366004610d39565b610522565b6100b1610171366004610a3e565b61068a565b6100b1610184366004610a3e565b6106f6565b609082600c8110610198575f80fd5b600c020181600c81106101a9575f80fd5b01549150829050565b61012082600c81106101c2575f80fd5b6022020181602281106101a9575f80fd5b5f81515f14806101e55750600c825110155b1561020357604051637db491eb60e01b815260040160405180910390fd5b5f5b82518110156102575767ffffffff0000000183828151811061022957610229610d7b565b60200260200101511061024f57604051633ae4ed6b60e01b815260040160405180910390fd5b600101610205565b50610260610a1f565b5f8082525b83518110156102b35783818151811061028057610280610d7b565b6020026020010151828260016102969190610d8f565b600c81106102a6576102a6610d7b565b6020020152600101610265565b50600181845160016102c59190610d8f565b600c81106102d5576102d5610d7b565b60200201526102e38161034a565b505f836040516020016102f69190610ddf565b60408051808303601f1901815290829052805160209182012084518352925082917fcc20b4d7c3c1bfc6cf6d1e7003d19c886bd70fffd4f8c8abff84beb9d4862aab910160405180910390a2505192915050565b610352610a1f565b61035b82610729565b91505f5b61036b60026008610dea565b8110156103865761037c83826107d0565b925060010161035f565b505f5b601a8110156103bb576103b1836103a260026008610dea565b6103ac9084610d8f565b6108a9565b9250600101610389565b505f5b6103ca60026008610dea565b811015610406576103fc83601a6103e360026008610dea565b6103ed9085610d8f565b6103f79190610d8f565b6107d0565b92506001016103be565b5090919050565b5f82600c8110610198575f80fd5b5f8361045057609083600c811061043457610434610d7b565b600c020182600c811061044957610449610d7b565b015461047a565b5f83600c811061046257610462610d7b565b600c020182600c811061047757610477610d7b565b01545b949350505050565b6060815167ffffffffffffffff81111561049e5761049e610a5e565b6040519080825280602002602001820160405280156104c7578160200160208202803683370190505b5090505f5b825181101561051c576104f78382815181106104ea576104ea610d7b565b60200260200101516101d3565b82828151811061050957610509610d7b565b60209081029190910101526001016104cc565b50919050565b5f82515f14806105345750600c835110155b1561055257604051637db491eb60e01b815260040160405180910390fd5b61055a610a1f565b8281525f5b84518110156105ee5767ffffffff0000000185828151811061058357610583610d7b565b6020026020010151106105a957604051633ae4ed6b60e01b815260040160405180910390fd5b8481815181106105bb576105bb610d7b565b6020026020010151828260016105d19190610d8f565b600c81106105e1576105e1610d7b565b602002015260010161055f565b50600181855160016106009190610d8f565b600c811061061057610610610d7b565b602002015261061e8161034a565b505f8484604051602001610633929190610e09565b60408051808303601f1901815290829052805160209182012084518352925082917fcc20b4d7c3c1bfc6cf6d1e7003d19c886bd70fffd4f8c8abff84beb9d4862aab910160405180910390a2505190505b92915050565b6040805160028082526060820183525f928392919060208301908036833701905050905083815f815181106106c1576106c1610d7b565b60200260200101818152505082816001815181106106e1576106e1610d7b565b60200260200101818152505061047a816101d3565b5f61012083600c811061070b5761070b610d7b565b60220201826022811061072057610720610d7b565b01549392505050565b610731610a1f565b610739610a1f565b5f5b600c8110156107c9575f805b600c8110156107a75767ffffffff00000001805f85600c811061076c5761076c610d7b565b600c020183600c811061078157610781610d7b565b01548884600c811061079557610795610d7b565b60200201510983089150600101610747565b50808383600c81106107bb576107bb610d7b565b60200201525060010161073b565b5092915050565b6107d8610a1f565b5f5b600c81101561084e5767ffffffff0000000161012084600c811061080057610800610d7b565b60220201826022811061081557610815610d7b565b01548583600c811061082957610829610d7b565b6020020151088482600c811061084157610841610d7b565b60200201526001016107da565b505f5b600c811015610898576108798482600c811061086f5761086f610d7b565b602002015161093d565b8482600c811061088b5761088b610d7b565b6020020152600101610851565b506108a283610729565b9392505050565b6108b1610a1f565b5f5b600c8110156109275767ffffffff0000000161012084600c81106108d9576108d9610d7b565b6022020182602281106108ee576108ee610d7b565b01548583600c811061090257610902610d7b565b6020020151088482600c811061091a5761091a610d7b565b60200201526001016108b3565b50610932835f61086f565b83526108a28361097e565b5f815f0361094c57505f919050565b5f67ffffffff0000000183840990505f67ffffffff00000001828309905067ffffffff00000001848209949350505050565b610986610a1f565b61098e610a1f565b5f5b600c8110156107c9575f805b600c8110156109fd5767ffffffff0000000180609085600c81106109c2576109c2610d7b565b600c020183600c81106109d7576109d7610d7b565b01548884600c81106109eb576109eb610d7b565b6020020151098308915060010161099c565b50808383600c8110610a1157610a11610d7b565b602002015250600101610990565b604051806101800160405280600c906020820280368337509192915050565b5f5f60408385031215610a4f575f5ffd5b50508035926020909101359150565b634e487b7160e01b5f52604160045260245ffd5b604051601f8201601f1916810167ffffffffffffffff81118282101715610a9b57610a9b610a5e565b604052919050565b5f67ffffffffffffffff821115610abc57610abc610a5e565b5060051b60200190565b5f82601f830112610ad5575f5ffd5b8135610ae8610ae382610aa3565b610a72565b8082825260208201915060208360051b860101925085831115610b09575f5ffd5b602085015b83811015610b26578035835260209283019201610b0e565b5095945050505050565b5f60208284031215610b40575f5ffd5b813567ffffffffffffffff811115610b56575f5ffd5b61047a84828501610ac6565b5f6101808284031215610b73575f5ffd5b82601f830112610b81575f5ffd5b604051610180810167ffffffffffffffff81118282101715610ba557610ba5610a5e565b60405280610180840185811115610bba575f5ffd5b845b81811015610bd4578035835260209283019201610bbc565b509195945050505050565b610180810181835f5b600c811015610c07578151835260209283019290910190600101610be8565b50505092915050565b5f5f5f60608486031215610c22575f5ffd5b83358015158114610c31575f5ffd5b95602085013595506040909401359392505050565b5f60208284031215610c56575f5ffd5b813567ffffffffffffffff811115610c6c575f5ffd5b8201601f81018413610c7c575f5ffd5b8035610c8a610ae382610aa3565b8082825260208201915060208360051b850101925086831115610cab575f5ffd5b602084015b83811015610cec57803567ffffffffffffffff811115610cce575f5ffd5b610cdd89602083890101610ac6565b84525060209283019201610cb0565b509695505050505050565b602080825282518282018190525f918401906040840190835b81811015610d2e578351835260209384019390920191600101610d10565b509095945050505050565b5f5f60408385031215610d4a575f5ffd5b823567ffffffffffffffff811115610d60575f5ffd5b610d6c85828601610ac6565b95602094909401359450505050565b634e487b7160e01b5f52603260045260245ffd5b8082018082111561068457634e487b7160e01b5f52601160045260245ffd5b5f8151602083015f5b82811015610dd5578151865260209586019590910190600101610db7565b5093949350505050565b5f6108a28284610dae565b5f82610e0457634e487b7160e01b5f52601260045260245ffd5b500490565b5f610e148285610dae565b928352505060200191905056fea26469706673582212206af69cf5c6f814be83ddc7d62bd1c9595da784166cd2752b8bc277b5c244aa6a64736f6c634300081e0033","linkReferences":{}},"methodIdentifiers":{"batchHash(uint256[][])":"6c187eef","externalMatrix(uint256,uint256)":"56dca792","getMatrixElement(bool,uint256,uint256)":"5f7482a8","getRoundConstant(uint256,uint256)":"f11b740d","hash(uint256[])":"40ec6e49","hashWithDomain(uint256[],uint256)":"848b680c","internalMatrix(uint256,uint256)":"002f7bc1","merkleHash(uint256,uint256)":"e10a53dc","permute(uint256[12])":"496f3b22","roundConstants(uint256,uint256)":"3b0023c7"}}}}}