{"abi":[{"type":"function","name":"merkleHash","inputs":[{"name":"left","type":"uint256","internalType":"uint256"},{"name":"right","type":"uint256","internalType":"uint256"}],"outputs":[{"name":"","type":"uint256","internalType":"uint256"}],"stateMutability":"pure"},{"type":"error","name":"InvalidFieldElement","inputs":[]},{"type":"error","name":"InvalidInputLength","inputs":[]}],"bytecode":{"object":"0x61076c610034600b8282823980515f1a607314602857634e487b7160e01b5f525f60045260245ffd5b305f52607381538281f3fe7300000000000000000000000000000000000000003014608060405260043610610034575f3560e01c8063e10a53dc14610038575b5f5ffd5b61004b610046366004610689565b61005d565b60405190815260200160405180910390f35b6040805160028082526060820183525f928392919060208301908036833701905050905083815f81518110610094576100946106a9565b60200260200101818152505082816001815181106100b4576100b46106a9565b6020026020010181815250506100c9816100d3565b9150505b92915050565b5f81515f14806100e557506008825110155b1561010357604051637db491eb60e01b815260040160405180910390fd5b5f5b825181101561015c575f5160206107175f395f51905f5283828151811061012e5761012e6106a9565b60200260200101511061015457604051633ae4ed6b60e01b815260040160405180910390fd5b600101610105565b5061016561066a565b5f8082525b83518110156101b857838181518110610185576101856106a9565b60200260200101518282600161019b91906106bd565b600881106101ab576101ab6106a9565b602002015260010161016a565b50600181845160016101ca91906106bd565b600881106101da576101da6106a9565b60200201526101e8816101ef565b5192915050565b6101f88161029f565b5f5b610206600260086106f0565b81101561021f576102178282610369565b6001016101fa565b505f5b60308110156102525761024a8261023b600260086106f0565b61024590846106bd565b6103c6565b600101610222565b505f5b610261600260086106f0565b81101561029b5761029382603061027a600260086106f0565b61028490856106bd565b61028e91906106bd565b610369565b600101610255565b5050565b6102a761066a565b5f5b6008811015610322575f805b6008811015610300575f6102c984836103e5565b90505f5160206107175f395f51905f5280828885600881106102ed576102ed6106a9565b60200201510984089250506001016102b5565b5080838360088110610314576103146106a9565b6020020152506001016102a9565b505f5b600881101561036457818160088110610340576103406106a9565b6020020151838260088110610357576103576106a9565b6020020152600101610325565b505050565b6103738282610422565b5f5b60088110156103bc5761039d838260088110610393576103936106a9565b6020020151610518565b8382600881106103af576103af6106a9565b6020020152600101610375565b5061029b8261029f565b6103d08282610422565b6103da825f610393565b825261029b8261057d565b5f8183036103f5575060026100cd565b60086104028360016106bd565b61040c9190610703565b830361041a575060016100cd565b505f92915050565b6040517f43617264696e616c5f506f736569646f6e325f74385f726f756e6400000000006020820152603b81018290525f90605b0160408051601f19818403018152919052805160209091012090505f5b6008811015610512575f5f5160206107175f395f51905f5283836040516020016104a7929190918252602082015260400190565b604051602081830303815290604052805190602001205f1c6104c99190610703565b90505f5160206107175f395f51905f52818684600881106104ec576104ec6106a9565b602002015108858360088110610504576105046106a9565b602002015250600101610473565b50505050565b5f815f0361052757505f919050565b5f5f5160206107175f395f51905f5283840990505f5f5160206107175f395f51905f5282830990505f5f5160206107175f395f51905f5283830990505f5160206107175f395f51905f5285820995945050505050565b61058561066a565b5f5b6008811015610600575f805b60088110156105de575f6105a78483610642565b90505f5160206107175f395f51905f5280828885600881106105cb576105cb6106a9565b6020020151098408925050600101610593565b50808383600881106105f2576105f26106a9565b602002015250600101610587565b505f5b60088110156103645781816008811061061e5761061e6106a9565b6020020151838260088110610635576106356106a9565b6020020152600101610603565b5f82158061064e575081155b1561065b575060016100cd565b81830361041a575060026100cd565b6040518061010001604052806008906020820280368337509192915050565b5f5f6040838503121561069a575f5ffd5b50508035926020909101359150565b634e487b7160e01b5f52603260045260245ffd5b808201808211156100cd57634e487b7160e01b5f52601160045260245ffd5b634e487b7160e01b5f52601260045260245ffd5b5f826106fe576106fe6106dc565b500490565b5f82610711576107116106dc565b50069056fe30644e72e131a029b85045b68181585d2833e84879b9709143e1f593f0000001a26469706673582212201f4f152de1a1b5d71149329cf8ebfbb6f0c780a402117bacb6ec5c0a90a84b6764736f6c634300081e0033","linkReferences":{}},"methodIdentifiers":{"merkleHash(uint256,uint256)":"e10a53dc"},"id":0}